:020000040800F2
:10000000A0060020A901000817310008CB2D000828
:100010001531000825080008513B000800000000C9
:100020000000000000000000000000003B3100085C
:100030002708000800000000393100083D310008A1
:10004000C3010008C3010008C3010008C301000880
:10005000C3010008C3010008C3010008C301000870
:10006000C3010008C3010008C3010008C301000860
:10007000C3010008C3010008C3010008C301000850
:10008000C3010008C301000845070008C3010008B8
:10009000C3010008C3010008C3010008C301000830
:1000A000C3010008C3010008C3010008C301000820
:1000B000C3010008C3010008C3010008C301000810
:1000C000C3010008C3010008C3010008C301000800
:1000D000C3010008453B0008C3010008C301000834
:1000E000C3010008C3010008C3010008C3010008E0
:1000F000C3010008C3010008C3010008C3010008D0
:10010000C30100080000000000000000C301000857
:10011000C3010008C3010008C3010008C3010008AF
:10012000C3010008C3010008C3010008C30100089F
:10013000C3010008C3010008000000000000000027
:10014000C3010008C3010008C3010008000000004B
:10015000000000000000000000000000000000009F
:10016000C3010008C3010008C3010008C30100085F
:10017000C3010008C3010008C3010008C30100084F
:10018000C3010008C30100080000000000000000D7
:10019000C3010008DFF80CD000F0C2FA00480047A5
:1001A000AD3F0008A00600200648804706480047EB
:1001B000FEE7FEE7FEE7FEE7FEE7FEE7FEE7FEE717
:1001C000FEE7FEE7B131000895010008202A04DBB4
:1001D000203A21FA02F00021704721FA02F3D040C0
:1001E000C2F120029140084319467047D2B201E0A3
:1001F00000F8012B491EFBD270470022F6E710B52C
:1002000013460A4604461946FFF7F0FF204610BD84
:100210002DE9FE4F804681EA0300C00F0C46009096
:1002200021F0004123F00045B8EB0200A94105D2BE
:100230004046214690461C460B46024623F00040AD
:10024000104347D0270DC7F30A00C3F30A510290A9
:10025000401A019040286BDAC3F3130040F4801B6E
:100260000098924620B10023D2EB030A63EB0B0BFC
:1002700001985946C0F14002504600F09BF90646ED
:100280000D4650465946019A00F0A3F910EB0800BC
:100290006141002487EA115284EAE7731A4340D08F
:1002A000009A62B3019A012A4FEA075215DC001B3B
:1002B00061EB02014FF0004202EA0752CDE9004231
:1002C000001C41F5801132462B4600F0DAF903B0EC
:1002D000BDE8F08F40462146F9E7001B61EB0201C3
:1002E000001C41F5801300185B412018A2F500178F
:1002F00047EB030140EAD570B6196D4111E06D0876
:100300004FEA360645EAC0754FEA0752001B61EB1B
:100310000201001C41F5801149084FEA3000001924
:10032000514132462B4603B0BDE8F04F00F09AB978
:100330000098012240000023D0EB020263EBE0733F
:10034000009821464FEAE074B8EB000061EB04012D
:10035000E9E783F000435BE781F0004158E72DE9CE
:10036000FE4F81EA030404F0004421F000410094B0
:100370004FF0000B23F0004350EA01045ED052EA34
:1003800003045BD0C3F30A54C1F30A552C44A4F20E
:10039000F3340194A0FB0254C1F3130141F4801122
:1003A000C3F3130343F4801301FB024400FB034E29
:1003B000840A970A44EA815447EA8357A4FB0768F2
:1003C00002958D0A05FB07854FEA932C04FB0C541C
:1003D0002705029D4FEA065847EA1637B5EB080590
:1003E0006EEB070C870E920E47EA811742EA8312E2
:1003F000A7FB0201B6EB0B0164EB00042B0D43EAF3
:100400000C335E1844EB1C50DA465146E7FB020100
:10041000C5F313044FEA0B3343EA14534FEA043293
:10042000019C43EA0603A4F10C040294009CCDE96C
:1004300000B400F026F903B0BDE8F08F00200146BB
:10044000F9E70EB5C10F80EAE0700844CA07002141
:1004500040F233438DE80E000A460B4600F011F9D6
:1004600003B000BD0EB540F2334102910021CDE949
:1004700000110A460B4600F004F903B000BD70B548
:10048000C1F30A5201F000450024C1F3130140F208
:10049000FF3341F480119A4201DA002070BD40F22E
:1004A00033439A42A2F2334203DC5242FFF78EFEFC
:1004B00000E090402C43F1D0404270BDC1F30A529D
:1004C00010B5C1F3130140F2FF3341F480119A4299
:1004D00001DA002010BD40F233439A42A2F23342C7
:1004E00003DC5242FFF772FE10BD904010BD0000C9
:1004F00030B5041E71F1000404DB4FF000444042AB
:1005000064EB0101141E73F1000405DB1C464FF07F
:100510000043524263EB04038B4208BF824230BD6A
:1005200030B5041E71F1000404DB4FF0004440427A
:1005300064EB0101141E73F1000405DB1C464FF04F
:100540000043524263EB0403994208BF904230BD1E
:1005500001F0004330B421F0004150EA010206D01E
:100560000A0DA2F56072C1F31301002A02DC30BC4F
:1005700000207047440F44EAC104C100E01830BCB9
:1005800000EBC25000F037B830B50B4601460020F2
:100590002022012409E021FA02F59D4205D303FA45
:1005A00002F5491B04FA02F52844151EA2F10102C6
:1005B000F1DC30BD202A04DB203A00FA02F10020F1
:1005C00070479140C2F1200320FA03F31943904091
:1005D0007047202A06DBCB17203A41FA02F043EAA3
:1005E000E07306E041FA02F3D040C2F120029140EC
:1005F0000843194670470029A8BF7047401C4900AE
:1006000008BF20F00100704710B4B0FA80FC00FA77
:100610000CF050EA010404BF10BC704749B1CCF1A2
:10062000200421FA04F411FA0CF118BF012121432E
:100630000843A3EB0C01CB1D4FEA00614FEA1020E9
:1006400042BF002010BC704700EBC350104400298B
:10065000A4BF10BC7047401C490008BF20F0010037
:1006600010BC704710B5141E73F1000408DA401C6A
:1006700041F1000192185B411A4301D120F00100C1
:1006800010BD2DE9F04D92469B4611B1B1FA81F2B1
:1006900002E0B0FA80F220329046FFF78BFF04466A
:1006A0000F4640EA0A0041EA0B0153465A46084306
:1006B00013D0114653EA010019D0C8F14002504648
:1006C000FFF784FD05460E46504659464246FFF761
:1006D00071FF084305D0012004E020463946BDE8FB
:1006E000F08D0020054346EAE0762C4337430A9814
:1006F0006305E40AA0EB08000022FD0A44EA47541F
:100700000A3002D500200146E9E7010510196941C8
:10071000DDE9084500196941BDE8F04DA2E7000098
:10072000064C074D06E0E06840F0010394E807003E
:1007300098471034AC42F6D3FFF730FD284200084A
:100740004842000810B5044800F084FBBDE81040A2
:10075000024800F07FBB0000480000209C00002001
:1007600070B504460068816801F00301012926D1B3
:100770000168C90723D0816801F00D01012910D15A
:10078000816841F00201816021680320086001F066
:10079000FBF805460FE000BF01F0F6F8401B022809
:1007A00009D9606C40F010006064A06C40F001005A
:1007B000A064012070BD20688068C007ECD10020D3
:1007C00070BD000070B504460068816801F0030147
:1007D000012902D10168C90720D18168104A11425C
:1007E0000DD1816841F00101816001F0CDF805462D
:1007F0000FE000BF01F0C8F8401B022809D9606C67
:1008000040F010006064A06C40F00100A064012082
:1008100070BD20680068C043C007EBD1002070BDE8
:100820003F000080FEE77047704770477047704791
:10083000F0B5002302684FF0A04C3D4C95B01F4628
:10084000624501D100940DE0A24202D1CDF800C072
:1008500008E0384D384EAA4201D1009602E0B2427B
:1008600014D1009590F84050012D12D0012580F848
:10087000405095686D0752D4009DAD686D074ED409
:10088000624501D0A24206D12C4A05E0012015B0F4
:10089000F0BD0220FBE72A4A0D6840F61F741DB325
:1008A0009568466B25F4604545EA46354E68354304
:1008B00095600568AE6806F00306012E02D12D682A
:1008C000ED0731D1009DAD6805F00305012D03D181
:1008D000009D2D68ED0727D10D6889680D4391684B
:1008E000A1430D4395601FE0916821F46041916040
:1008F00001688D6805F00305012D02D10968C9075B
:1009000012D10099896801F00301012903D10099EE
:100910000968C90708D19168A143916004E0416C5E
:1009200041F020014164012380F840701846AEE791
:10093000000100500004005000050050000300506A
:1009400000070050F0B595B00024009490F84020C6
:100950002546012A19D0012780F8407003689A685B
:1009600052077CD44A681F26052A11D2D3F830C01A
:1009700002EB4202520096402CEA060C0E689640AA
:100980004CEA060CC3F830C035E0022015B0F0BDCB
:100990000A2A0FD2D3F834C0521F02EB420252008F
:1009A00096402CEA060C0E6896404CEA060CC3F8FA
:1009B00034C020E00F2A0FD2D3F838C00A3A02EB35
:1009C0004202520096402CEA060C0E6896404CEA11
:1009D000060CC3F838C00EE0D3F83CC00F3A02EB67
:1009E0004202520096402CEA060C0E6896404CEAF1
:1009F000060CC3F83CC00268936813F00C0F4FF06C
:100A0000070374D1D1F800E0BEF10A0F10D3966944
:100A1000AEF10A0E0EEB4E0C03FA0CFE26EA0E06A1
:100A2000D1F808E00EFA0CFE46EA0E0696610FE0D9
:100A3000D2F814C00EEB4E0603FA06FE2CEA0E0C9A
:100A4000D1F808E00EFA06FE4CEA0E0CC2F814C00B
:100A500002684E69D2F80CC0CCF3C10C00E0FDE096
:100A60004FEA4C0C06FA0CF6D1F810E0DFF848C259
:100A7000BEF1010F42D0BEF1020F4DD0BEF1030F07
:100A800058D0BEF1040F63D0166E91F800C006F086
:100A9000F846B6EB8C6F03D1166E26F0004616664C
:100AA0000268566E91F800C006F0F846B6EB8C6FFF
:100AB00003D1566E26F0004656660268966E91F88F
:100AC00000C006F0F846B6EB8C6F03D1966E26F0A8
:100AD000004696660268D66E91F800C006F0F846A9
:100AE000B6EB8C6F03D1D66E26F00046D666026850
:100AF000966806F00306012E3AD136E0D2F860E09F
:100B00000EEA0C0E91F800C046EA8C664EEA060E1C
:100B10004EF000461666EAE7D2F864E00EEA0C0EE4
:100B200091F800C046EA8C664EEA060E4EF000468A
:100B30005666DCE7D2F868E00EEA0C0E91F800C0C9
:100B400046EA8C664EEA060E4EF000469666CEE702
:100B5000D2F86CE00EEA0C0E91F800C046EA8C6602
:100B60004EEA060E4EF00046C0E71668F6077AD148
:100B7000CE68012E06D052F8B03F0E78B740BB4386
:100B8000136021E052F8B06F91F800C007FA0CF73B
:100B90003E4316600A680A2A0BD30668B769093A09
:100BA00002EB420293409F438B6893401F43B7611F
:100BB0000AE007687E69521C02EB420293409E43A2
:100BC0008B6893401E437E6103684FF0A0473B4E05
:100BD000BB4201D0B34201D1394A00E0394A096829
:100BE000102904D0112907D012290AD03BE0D2F8ED
:100BF00008C04FEA0C2C08E0D2F808C04FEACC1C21
:100C000003E0D2F808C04FEA4C2CBCF1000F2ADBFD
:100C1000BB420DD0B34201D100970CE02A4EDFF861
:100C2000ACC0B34202D1CDF800C004E0634501D1AD
:100C3000009600E000959E6806F00306012E02D1A2
:100C40001E68F6070AD1009E8EB1B66806F003064C
:100C5000012E0CD1009E3668F60708D0416C41F099
:100C600020014164012480F8405020468EE610297E
:100C700008D011291AD01229F5D1916841F48001C8
:100C80009160F0E7BB42EED1916841F400019160C0
:100C90000F49104A0968B1FBF2F101EB81014900EB
:100CA00000E0491E00910029FBD1DCE7BB42DAD10C
:100CB000916841F08071E3E700F0FF83000100508C
:100CC00000030050000700500004005000050050D1
:100CD0004000002040420F0070B50068B0F1A04F06
:100CE0001AD164210D4800F0DBFB0C4800F0AFF88E
:100CF0000B4C0546206000EB8500FFF7B3FB9FED32
:100D0000091B53EC112BFFF72AFBFFF721FC606056
:100D1000072095FBF0F0206170BD00004800002026
:100D20000000002005C078060DFD633F70B5006827
:100D30003549884267D16421344800F0B1FB33481B
:100D400000F085F8324CA06000EB8000FFF78AFBD2
:100D50009FED301B53EC112BFFF701FB9FED2F1B79
:100D600053EC112BFFF7FBFA41EC100B84ED0A0B4F
:100D7000FFF785FB60612BA12E4802F0FBFE2D4999
:100D800082B24FF4FA752B46A1F17A0001F0C2FF4E
:100D900029A12848626902F0EDFE264982B22B465D
:100DA000A1F17A0001F0B6FF24A1224802F0E2FE90
:100DB000204982B22B46A1F17A0001F0ABFF20A1BD
:100DC0001C4802F0D7FE1B4982B22B46A1F17A00E3
:100DD00001F0A0FF18A11748226902F0CBFE1549C7
:100DE00082B22B46A1F17A0001F094FF13A11148C1
:100DF00002F0C0FE2B46BDE870400E4982B2A1F160
:100E00007A0001F087BF70BD000100509C000020F7
:100E10000000002007F0164850FC983F1F85EB515A
:100E2000B81EE53F74656D70657261747572650D0D
:100E3000000000006A020020256400000A0D000086
:100E40006272696768746E6573730D00704700683D
:100E5000006C70472DE9F041044600680168C34FFB
:100E6000C34DC44E49074FF0A04802D54168490719
:100E700005D40168090761D5416809075ED5616C31
:100E8000C90603D4616C41F4007161644146884233
:100E900001D0B04202D1D1F8082300E03A6812F044
:100EA0001F0F1BD0884201D0B04202D1D1F80823D5
:100EB00000E03A6802F01F02052A0FD0884201D0F4
:100EC000B04202D1D1F8082300E03A6802F01F02D4
:100ED000092A03D0884201D0A84201D1C16803E0A9
:100EE000B04200D02946C968C26812F4406F1FD1D1
:100EF00089041DD4016809071AD5816849070FD4F0
:100F0000416821F00C014160606C20F480706064E5
:100F1000606CC0040CD4606C40F00100606407E0B9
:100F2000606C40F010006064A06C40F00100A064B0
:100F30002046FFF7D1FE21680C2008602068016878
:100F4000890602D54168890605D4016849066ED52F
:100F5000416849066BD5616C41F4005161644246B9
:100F6000904201D0B04202D1D2F8081300E03968B3
:100F700011F01F0F1CD0904201D0B04202D1D2F824
:100F8000081300E0396801F01F01052910D041461F
:100F9000884201D0B04202D1D1F8083300E03B686A
:100FA00003F01F03092B03D0884201D0A84201D1CE
:100FB000C16803E0B04200D02946C968C36C13F091
:100FC000C00F07D08B0154D4C36813F4406F50D1C5
:100FD00089044ED4016849064BD51146884201D098
:100FE000B04202D1D1F8082300E03A6812F01F0F96
:100FF0001BD0884201D0B04202D1D1F8082300E0D2
:101000003A6802F01F02062A0FD0884201D0B0428F
:1010100002D1D1F8082300E03A6802F01F02072A43
:1010200003D0884201D0A84202D1C16804E026E082
:10103000B04200D02946C96889021AD481680907DC
:101040000FD4416821F060014160606C20F4805051
:101050006064606CC0050CD4606C40F0010060649A
:1010600007E0606C40F010006064A06C40F001008C
:10107000A0642046FFF7D8FB216860200860206844
:10108000016809060CD54068000609D5606C40F47B
:1010900080306064204600F0ABF921688020086051
:1010A00020680168C9050DD54068C0050AD5606C87
:1010B00040F4003060642046FFF7B8FB21684FF42D
:1010C000807008602068016889050DD5406880053A
:1010D0000AD5606C40F4802060642046FFF7A7FBCF
:1010E00021684FF40070086020680168C90622D5A5
:1010F0004168C9061FD5A16B01290ED0404501D01A
:10110000B04201D11C4901E0184908398A68D20669
:1011100028D0886800F4404050B1606C40F4806092
:101120006064A06C40F00200A0642046FFF78EFED1
:1011300021681020086020680168490510D54168C1
:1011400049050DD5616C41F480416164A16C41F0A9
:101150000801A1644FF4806101602046FFF765FB40
:10116000BDE8F081C068C007D6E70000080700505E
:10117000000400500001005000030050F0B54FF093
:10118000000695B0040037463546009605D0606CE1
:10119000C00648D4606C18B133E0012015B0F0BD32
:1011A000A5642565E56484F84050204600F022F9E6
:1011B00020688068C00024D42046FFF7D1FA064694
:1011C000606CC0061DD4E6B9606C20F4885040F015
:1011D000020060642068816821F0405181602068CD
:1011E000816841F080518160784879490068B0FB9E
:1011F000F1F000EB8000400000E0401E009000286D
:10120000FBD120688168C90002D5806880000AD5BA
:10121000606C20F0020040F010006064A06C40F0B0
:101220000100A0640126606CC00671D4002E6FD14D
:101230002068816849076BD4616C21F4807141F0AA
:10124000020161644FF0A04E624B704501D098429C
:1012500001D1614A00E0614ADFF884C1614970450B
:1012600001D100930EE0984202D1CDF800E009E0F0
:10127000884202D1CDF800C004E0604501D1009160
:1012800000E00095836803F00303012B02D100689E
:10129000C00710D1009840B1806800F00300012819
:1012A00003D100980068C00705D19068636820F4F6
:1012B000403018439060D4E902201043A26B012A09
:1012C00002D04FF4805300E00023E26943EA423346
:1012D0001843636A3843012B0AD1D2B1626C22F001
:1012E000020242F020026264A26C42F00102A26497
:1012F000E26A012A37D023688B4201D063452DD1A1
:101300004FF430714FF4E0778A420AD13A4627E031
:1013100052E0228D344B03EB4242024342F48030D0
:10132000E6E74FF480739A4201D10A4618E0BA42C8
:1013300001D11A4614E0B2F58A5F06D0B2F5845F97
:1013400006D0B2F5865F06D00AE04FF4707207E06F
:101350004FF4A07204E04FF4C07201E022F4805216
:101360000243206B104321688A6812F00C0F0AD1E7
:10137000CA6844F202039A43CA60A169626B890396
:1013800041EA420108432268D168184B19400143E1
:10139000D160206901282068016B21F00F0102D182
:1013A000226A521E11430163A564606C20F00200A2
:1013B00040F00100606406E0606C20F0020040F044
:1013C0001000606401263046E8E60000400000207E
:1013D00040420F0000010050000300500007005081
:1013E00000050050000400500000FEFF07C0F0FFA1
:1013F00070470000F0B587B0044614216846FEF738
:10140000FCFE244B266800241A6803252249521C3E
:101410004FF09040B6F1A04F06D0204FBE4237D1DA
:101420001A60012A15D01CE01A60012A07D14A6906
:1014300042F080524A614A6902F0805205924A693C
:1014400042F400324A61496901F4003105910121F9
:1014500010E04A6942F080524A614A6902F08052C3
:1014600005924A6942F400324A61496901F4003147
:1014700005911021CDE900150294694600F094F918
:1014800000221146122000F0E1FA122000F0D2FAF8
:1014900007B0F0BD300000200010024000010050F5
:1014A0002DE9F0470D46044641693F4A00684FF078
:1014B00000084FF0A043082905D0984201D090427F
:1014C00003D13A4902E0082614E039498E68F6064D
:1014D0000CD0896801F4404159B1606C40F02000A3
:1014E000606484F840800120BDE8F087C168C907C6
:1014F000F2E70C26984201D0904202D1D3F80813AB
:1015000002E02B490831096811F01F0F04D09842FE
:1015100002D02849884201D1C76803E0904200D137
:101520001946CF6800F030FA814610E0681C0ED0F2
:101530002DB100F029FAA0EB0900A84207D9606C90
:1015400040F00400606484F840800320CCE7206809
:1015500000683042EAD0606C40F40070606420683B
:10156000C16811F4406F1AD1B90418D40168090791
:1015700015D581684907616C0AD421F480716164D2
:10158000616CC9040BD4616C41F00101616406E037
:1015900041F020016164A16C41F00101A164790472
:1015A00000D4066000209FE70001005000030050B7
:1015B00000070050000400502DE9F0410446006887
:1015C0008068400770D494F8400001280CD00120B6
:1015D00084F840002046FFF7F5F803004FF00006BE
:1015E00005D084F840609EE00220BDE8F081606C88
:1015F00040F60161884340F48070606420684FF0D9
:10160000A0414A4A4A4D884201D0904202D1D1F8C5
:10161000087300E02F6817F01F0F464F03D0884271
:1016200001D0B8420BD1D4F844C02CF4801CC4F8CB
:1016300044C0D0F80CC05FEA8C1C14D41BE0D4F872
:1016400044C04CF4801CC4F844C0904202D1D1F88C
:101650000CC005E0DFF8DCC00CF10C0CDCF800C0BD
:101660001CF0007F07D0D4F844C02CF4005C4CF48C
:10167000805CC4F844C0D4F844C05FEACC4C06D5C2
:10168000D4F848C02CF0060CC4F848C000E0A664AA
:1016900084F840601C260660606908282068466857
:1016A00003D046F00C0607E03CE026F00406466056
:1016B0002068466846F008064660A06B012804D101
:1016C0002068466826F0100646602068884201D0EF
:1016D000904202D1D1F8084300E02C6814F01F0FAB
:1016E0001BD0884201D0904202D1D1F8084300E0DB
:1016F0002C6804F01F04052C0FD0884201D09042C2
:1017000002D1D1F8082300E02A6802F01F02092A5A
:1017100003D0884201D0B84205D1816841F004016C
:10172000816000E0022318465FE7000000010050DE
:10173000080700500004005010B590F82110002454
:10174000022903D004218163012418E001680A689A
:1017500022F00E020A6001680A6822F001020A60A3
:1017600090F84020C36B012101FA02F25A6080F820
:101770002110002180F82010416B01B188472046DC
:1017800010BD000070B5044600F0FEF80546601C70
:1017900002D004480078044400F0F6F8401BA04250
:1017A000FAD370BD340000202DE9F84FDFF8A0B166
:1017B000002301274FF0030A4FF00F090BF1040E2D
:1017C000BEE000BF07FA03F63440220072D04C6836
:1017D000022C01D0122C12D1DC0800EB840CDCF8B6
:1017E00020405D07ED0E09FA05F824EA0804D1F857
:1017F000108008FA05F848EA0408CCF82080D0F8F0
:1018000000805D0091F804C00AFA05F40CF0030CA6
:1018100028EA04080CFA05FC4CEA080CC0F800C0E1
:10182000D1F804C0BCF1010F08D0BCF1020F05D003
:10183000BCF1110F02D0BCF1120F16D1D0F808C0C4
:10184000D1F80C802CEA040C08FA05F848EA0C08D8
:10185000C0F80880D0F804C02CEA060C0E79C6F354
:1018600000169E4046EA0C064660C668A6438C6891
:10187000AC403443C4604C68E40060D5354CA56985
:1018800045F00105A561A46923F0030504F00104F6
:101890000094314C2E19B4689D074FEA157C09FA63
:1018A0000CF5AC43B0F1904F05D02C4DA84204D1BB
:1018B00001251CE043E0002519E0294DA84201D193
:1018C000022514E0274DA84201D103250FE0264D43
:1018D000A84201D104250AE0244DA84201D10525E2
:1018E00005E0234DA84201D1062500E0072505FAB1
:1018F0000CF52543B560DBF800405D464E68944327
:10190000F60300D514432C60DEF8004075464E689F
:101910009443B60300D514432C600D4D08352C6854
:101920004E689443F60200D514432C60084D0C35E4
:101930002C684E689443B60200D514432C605B1C9F
:101940000A681446DA407FF43DAFBDE8F88F000026
:101950000004014000100240000001400004004863
:1019600000080048000C004800100048001400481F
:10197000001800480069084000D0012070470AB1F3
:10198000816170478162704701488068704700003C
:101990003400002002488168027811448160704759
:1019A00034000020074810B5016841F010010160C3
:1019B000032000F06BF8002000F006F800F024F897
:1019C000002010BD0020024070B50D4D04464FF4BC
:1019D0007A712878B1FBF0F00A490968B1FBF0F0A0
:1019E00000F07AFD48B9102C07D200222146501E83
:1019F00000F02CF800206C6070BD012070BD00006C
:101A00003400002040000020094808B5816941F0F9
:101A100001018161816901F001010091C16941F019
:101A20008051C161C06900F08050009008BD000085
:101A30000010024000F01F02012191404009800087
:101A400000F1E020C0F8001170470000F0B40E4B28
:101A50001B680C46C3F30223C3F10705042D00D90C
:101A60000425191D072901D2002300E0DB1E0126F1
:101A700006FA05F1491E214099409E40761E164007
:101A80003143F0BC01F048BB0CED00E0064900F02A
:101A9000070208684FF6FF03184040EA0220034A95
:101AA00010430860704700000CED00E00000FA05EC
:101AB0002DE9F84F044600689F4DC0036FD5E869D3
:101AC0000026C00008D4E86940F08050E861E86969
:101AD000012600F08050009098480168C90512D492
:101AE0000168804641F480710160FFF74DFF0746B1
:101AF00005E000BFFFF748FFC01B642835D8D8F8C1
:101B00000000C005F6D5286A10F4407053D0A188B3
:101B100001F4407181424ED0286A4FF4803191FA2D
:101B2000A1F2B2FA82F29700854A4FF001081744F9
:101B300020F44070C7F8008491FAA1F1B1FA81F164
:101B400002EB81010023C1F800342862C00732D0C3
:101B5000FFF71AFF074641F2883A4FF0020907E003
:101B6000FFF712FFC11B514502D90320BDE8F88FD2
:101B700099FAA9F1B1FA81F141F040024846B8EB77
:101B8000521F01D12A680CE090FAA0F2B2FA82F258
:101B900042F04002B0EB521F02D12A6A01E015E088
:101BA0006A6A99FAA9F0B0FA80F000F01F0008FA0A
:101BB00000F10A42D4D0286A616820F440700843DA
:101BC00028621EB1E86920F08050E8612078C007E3
:101BD00005D0286BA16820F0030008432863207813
:101BE000800705D5286BE16820F44030084328635E
:101BF0002078400705D5286B216920F44020084350
:101C000028632078800605D5286BE16920F0100054
:101C1000084328632068800305D56868616D20F457
:101C20008000084368602078400605D5286B216A4B
:101C300020F02000084328632068400305D5286B66
:101C4000616A20F04000084328632078000705D52A
:101C5000286B616920F44010084328632078C0068F
:101C600005D5286BA16920F440000843286320882B
:101C7000800505D56868216B20F400000843686082
:101C80002078000605D5E86AA16A20F4F8700843B8
:101C9000E8622088C00505D5E86AE16A20F478503A
:101CA0000843E8622088C00405D5286B616B20F4E6
:101CB0008070084328632088800405D5286B216C38
:101CC00020F40070084328632068C00205D5286B03
:101CD000A16B20F08070084328632068800205D53E
:101CE000286BE16B20F000700843286320684002F5
:101CF00005D5286B616C20F4806008432863206858
:101D0000000205D5286BA16C20F40060084328630D
:101D10002068C00105D5286BE16C20F40050084311
:101D200028632068800105D5286B216D20F40040D0
:101D300008432863002019E70010024000700040AB
:101D4000000042422DE9F0470F46050069D04A4E97
:101D5000306800F00700B84209D2306820F0070070
:101D600038433060306800F00700B84259D1287815
:101D7000424C800705D56068A96820F0F000084350
:101D800060602878C0073DD06968012001290DD026
:101D9000022923D05FF0020393FAA3F2B2FA82F28F
:101DA00042F02002520904D0226803E04FF40033CD
:101DB000F2E7626A93FAA3F3B3FA83F303F01F0323
:101DC000984002422DD0606820F003000843606014
:101DD000FFF7DAFD804641F288390CE04FF00073DE
:101DE000DAE700BFFFF7D0FDA0EB0801494502D9B3
:101DF0000320BDE8F0876068696800F00C00B0EB74
:101E0000810FEFD1306800F00700B8420BD930687D
:101E100020F0070038433060306800F00700B84217
:101E200001D00120E5E72878400705D56068E9681A
:101E300020F4E060084360602878000706D56068F9
:101E4000296920F4605040EAC100606000F04CF85D
:101E50006168F02292FAA2F201F0F001B2FA82F285
:101E6000D140074A515CC840064908600020FFF78E
:101E7000ABFD0020BDE70000002002400010024042
:101E800010420008400000200848094900684968DD
:101E90004FF4E06292FAA2F201F4E061B2FA82F247
:101EA000D140044A515CC840704700004000002007
:101EB00000100240204200080848094900684968AB
:101EC0004FF4605292FAA2F201F46051B2FA82F237
:101ED000D140044A515CC8407047000040000020D7
:101EE0000010024020420008124B10B559681248F9
:101EF00001F00C02042A1CD0082A1AD14FF47014E5
:101F000094FAA4F401F47012B4FA84F4E2400B4C95
:101F1000DB6AA25C0F2494FAA4F403F00F03B4FA72
:101F200084F4E340054CC9031034E35CB0FBF3F0E8
:101F3000504310BD0010024000127A00F04100082A
:101F40002DE9F84F04007DD02078FA4DC0074FF0FE
:101F5000010637D068687704C0F38100012819D0E2
:101F60006868C0F38100022804D16868C0F3C130FA
:101F700002280FD06068B0F5803F24D010B1B0F5D2
:101F8000A02F2AD0286820F480302860286820F408
:101F900080201BE097FAA7F0B0FA80F040F0200014
:101FA000400901D0286800E0686A97FAA7F1B1FA01
:101FB00081F101F01F0106FA01F108424ED060687C
:101FC0000028C0D04AE0286840F48030286060686B
:101FD00020B3FFF7D9FC80460AE0286840F480204F
:101FE0002860F0E7FFF7D0FCA0EB0800642873D866
:101FF00097FAA7F0B0FA80F040F02000400901D035
:10200000286800E0686A97FAA7F1B1FA81F101F057
:102010001F0106FA01F10842E4D01FE0FFF7B4FC0B
:10202000804605E0FFF7B0FCA0EB08006428DED88E
:1020300097FAA7F0B0FA80F040F02000400902D0F3
:10204000286801E0B9E0686A97FAA7F1B1FA81F16E
:1020500001F01F0106FA01F10842E3D12078DFF810
:10206000D88280074FF0000A4FF002075DD56868FC
:102070004FF0F80B10F00C0F15D06868C0F381001A
:10208000022804D16868C0F3C13001280BD0E06891
:10209000A0B396FAA6F0B0FA80F048F82060FFF7F7
:1020A00073FC814620E097FAA7F0B0FA80F040F088
:1020B0002000400901D0286800E0686A97FAA7F17B
:1020C000B1FA81F101F01F0106FA01F1084221D0B5
:1020D000E068012871D11DE056E100BFFFF754FC14
:1020E000A0EB09000228A2D897FAA7F0B0FA80F076
:1020F00040F02000400902D0286801E016E0686A3C
:1021000097FAA7F1B1FA81F101F01F0106FA01F186
:102110000842E3D028689BFAABF22169B2FA82F256
:1021200020F0F80091400843286024E096FAA6F1D8
:10213000B1FA81F148F821A0FFF726FC814605E0BD
:10214000FFF722FCA0EB09000228CCD897FAA7F0F1
:10215000B0FA80F040F02000400901D0286800E08B
:10216000686A97FAA7F1B1FA81F101F01F0106FA46
:1021700001F10842E4D1207800076AD56069A0B374
:1021800096FAA6F0B0FA80F008EB8000C0F8806400
:10219000FFF7FAFB814605E0FFF7F6FBA0EB09002D
:1021A0000228A0D897FAA7F0B0FA80F040F06000BB
:1021B000B6EB501F02D128680CE073E197FAA7F044
:1021C000B0FA80F040F06000B7EB501F01D1286AF0
:1021D00000E0686A97FAA7F1B1FA81F101F01F01F6
:1021E00006FA01F21042D7D033E0FFE796FAA6F0E4
:1021F000B0FA80F008EB8000C0F880A4FFF7C4FBC1
:10220000814605E0FFF7C0FBA0EB090002289CD83F
:1022100097FAA7F0B0FA80F040F06000B6EB501FDC
:1022200001D128680BE097FAA7F0B0FA80F040F0EF
:102230006000B7EB501F01D1286A00E0686A97FA86
:10224000A7F1B1FA81F101F01F0106FA01F2104283
:10225000D8D12078400774D5E8694FF00009C00054
:1022600009D4E86940F08050E861E8694FF001095D
:1022700000F08050009031480168C90512D401680F
:1022800041F480710160FFF77FFB834606E000BFE9
:10229000FFF77AFBA0EB0B00642875D8274800688D
:1022A000C005F5D5A06801280AD008B1052811D0CD
:1022B000286A20F001002862286A20F0040002E069
:1022C000286A40F001002862A068C8B3FFF75CFBF1
:1022D00083460DE0286A40F004002862F0E700BF62
:1022E000FFF752FBA0EB0B0141F2883081424BD843
:1022F00097FAA7F0B0FA80F040F04000B6EB501F1C
:1023000001D128680BE097FAA7F0B0FA80F040F00E
:102310004000B7EB501F01D1286A00E0686A97FAC5
:10232000A7F1B1FA81F101F01F0106FA01F21042A2
:10233000D6D035E00010024000004242007000405C
:1023400000E034E0FFF720FB834607E0FFF71CFBCB
:10235000A0EB0B0141F28830814215D897FAA7F023
:10236000B0FA80F040F04000B6EB501F01D1286871
:102370000CE097FAA7F0B0FA80F040F04000B7EB1D
:10238000501F02D1286A01E089E0686A97FAA7F134
:10239000B1FA81F101F01F0106FA01F21042D5D124
:1023A000B9F1000F03D0E86920F08050E861A0691E
:1023B00080B36968C1F38101022973D04FF0807145
:1023C0004F000228524609D091FAA1F0B0FA80F0ED
:1023D00048F82020FFF7D8FA044664E091FAA1F00B
:1023E000B0FA80F08A46C14648F82020FFF7CCFAC0
:1023F000804605E0FFF7C8FAA0EB080002284ED897
:1024000097FAA7F0B0FA80F040F02000400902D01F
:10241000286801E05CE0686A97FAA7F1B1FA81F1F7
:1024200001F01F0106FA01F10842E3D1E86A616A8E
:1024300020F00F000843E862D4E9071008436968F8
:1024400021F47611084368609AFAAAF0B0FA80F095
:1024500049F82060FFF798FA044604E0FFF794FA81
:10246000001B02281BD897FAA7F0B0FA80F040F0C2
:102470002000400901D0286800E0686A97FAA7F1B7
:10248000B1FA81F101F01F0106FA01F10842E5D02D
:102490001EE000BFFFF778FA001B022803D90320D3
:1024A000BDE8F88F16E097FAA7F0B0FA80F040F098
:1024B0002000400901D0286800E0686A97FAA7F177
:1024C000B1FA81F101F01F0106FA01F10842E1D1F0
:1024D0000020E5E70120E3E710B5401EB0F1807F62
:1024E00001D3012010BD4FF0E02460610F2160177F
:1024F00000F012FE0020A06107202061002010BD26
:1025000030B590F83C20012A40D0012280F83C20D0
:10251000CA688B6822F440721A434B6822F48062C6
:102520001A430B6822F400621A430B6922F48052AA
:102530001A434B6922F400521A438B6A22F48042F8
:102540001A4322F400421A430B8B22F4702242EA0F
:1025500003420F4D03680024AB4205D00D4DAB4242
:1025600002D00D4DAB420CD18D8C22F4700242EAA8
:102570000552CD6922F080722A43096A22F0007266
:102580000A435A6480F83C40002030BD022030BD30
:10259000002C0140003401400050014030B590F85B
:1025A0003C20012A22D0012280F83C200268536896
:1025B00094680F4DAA4205D00E4DAA4202D00E4D8E
:1025C000AA4203D123F470054B682B4323F0700516
:1025D0000B6889682B4324F0800421435360026810
:1025E0009160002180F83C10084630BD022030BDCB
:1025F000002C0140003401400050014010B504009F
:1026000003D094F83D0010B107E0012010BD002078
:1026100084F83C00204600F00DF8022084F83D00CC
:10262000211D206800F0F8FD012084F83D00002005
:1026300010BD000008B5174A01681748914207D13C
:10264000816941F400618161806900F4006009E002
:10265000124A914208D1816941F400518161806937
:1026600000F40050009008BD0D4A914207D18169E5
:1026700041F400318161806900F40030F2E7094AD9
:102680009142F0D1816941F480218161806900F437
:102690008020E7E7002C0140001002400034014098
:1026A0000044014000480140022180F83D100168CB
:1026B0000A6842F001020A60012180F83D10002002
:1026C00070470168CA6842F00102CA600068016888
:1026D00041F00101016000207047000070B5044620
:1026E00090F83C00012817D0012584F83C500220C6
:1026F00084F83D0022689068364E304020F47F40D8
:1027000090600868502839D00DDC20285BD005DCAB
:1027100098B3102843D153E0022070BD302855D023
:1027200040283CD141E0602830D070280CD0B0F572
:10273000805F03D0B0F5005F31D112E0206881687E
:10274000244A7032114016E0CB68D1E9012120689B
:1027500000F0CFFD21688868304040F07700886045
:102760001DE0CB68D1E90121206800F0C2FD20689E
:10277000816841F48041816011E01EE0CA684968C7
:10278000206800F079FF5021206806E0CA68496897
:10279000206800F082FF6021206800F0B4FD84F81A
:1027A0003D50002084F83C0070BDCA68496820682C
:1027B00000F062FF40212068EFE700212068ECE78D
:1027C00010212068E9E720212068E6E73021206811
:1027D000E3E7000088FFFEFF70B586B004461421D1
:1027E0006846FDF70AFD154E2568002214490224AB
:1027F00001234FF09040B54209D14D6945F40035B1
:102800004D61496901F40031059119030BE00D4E4A
:10281000B54210D14D6945F400354D61496901F467
:102820000031059180210091CDE901426946CDE951
:102830000323FEF7B9FF06B070BD0000004401405D
:10284000001002400048014070B5044690F83C007A
:102850000D4601280ED0012684F83C60022084F841
:102860003D000C2A45D007DC5AB1042A1BD0082AA7
:1028700078D12CE0022070BD102A4ED0142A71D1DC
:102880005DE0206800F048FD2068816941F00801A2
:1028900081612068816921F004018161206881697A
:1028A0002A69114311E0206800F08CFD20688169DD
:1028B00041F4006181612068816921F48061816156
:1028C000206881692A6941EA022181614AE0206821
:1028D00000F0C8FD2068C16941F00801C1612068AD
:1028E000C16921F00401C1612068C1692A691143ED
:1028F00011E0206800F006FE2068C16941F4006123
:10290000C1612068C16921F48061C1612068C16929
:102910002A6941EA0221C16124E0206800F032FE08
:102920002068416D41F0080141652068416D21F04A
:10293000040141652068416D2A69114311E0206856
:1029400000F05CFE2068416D41F400614165206843
:10295000416D21F4806141652068416D2A6941EA39
:102960000221416584F83D60002084F83C0070BD80
:1029700010B5040003D094F83D0010B107E0012029
:1029800010BD002084F83C00204600F00CF8022026
:1029900084F83D00211D206800F03EFC012084F8F1
:1029A0003D00002010BD704710B5044600680122AC
:1029B00000F094FC0E48216881420ED00D488142FF
:1029C0000BD00D48814208D00C48814205D00C48FC
:1029D000814202D00B48814203D1486C40F4004050
:1029E00048642068016841F001010160002010BDC9
:1029F000002C0140003401400040014000440140EF
:102A000000480140005001407047704770B50368AE
:102A10000446D869196810F00F0508D1820606D55A
:102A20008A0604D52046BDE8704000F0FFBE9A68D3
:102A3000002D66D002F0010501F490762E4360D09F
:102A4000C60707D0CE0505D501261E62E36E43F00A
:102A50000103E366830708D5D30706D0266802235F
:102A60003362E36E43F00403E366430708D5D207FD
:102A700006D0236804221A62E26E42F00202E26685
:102A800002070AD501F020022A4306D02368082253
:102A90001A62E26E42F00802E266E26E002A29D073
:102AA000800604D5880602D5204600F0BFFEE06E01
:102AB000000703D42068806840061CD5204600F03B
:102AC0009AFE20688168490611D5816821F040018D
:102AD0008160606E58B11C494163606EFEF72CFE48
:102AE000002807D0606E416BBDE870400847204663
:102AF000FFF78BFF70BD2046FFF787FF0020E066E1
:102B000070BDC5020ED552020CD54FF4801018626C
:102B1000202084F8690084F86A002046BDE87040EF
:102B2000FFF772BF020606D50A0604D52046BDE8A7
:102B3000704000F0A3BF4006E2D54806E0D520462D
:102B4000BDE8704000F065BEE337000810B5040032
:102B500003D094F8690010B107E0012010BD0020F7
:102B600084F86800204600F027F8242084F86900E3
:102B70002068016821F001010160204600F092FE0A
:102B80000128EBD0606A10B1204600F098FD206863
:102B9000416821F4904141602068816821F02A0158
:102BA00081602068016841F0010101602046BDE8B4
:102BB000104000F0E8BD000010B586B004461421B6
:102BC0006846FDF71AFB16492068884226D1154849
:102BD000816941F480418161816901F480410591FD
:102BE000416941F4002141614069694600F40020D7
:102BF00005903020009002200190002002900320D8
:102C00000390072004900848FEF7CEFD00221146ED
:102C10002520FEF71BFF2520FEF70CFF06B010BD98
:102C20000038014000100240000800482DE9F84F2C
:102C3000044690F86A009A4616460D46202866D14A
:102C4000EDB1E6B194F86800012860D0012084F865
:102C500068000027E766222084F86A004C34FEF7FB
:102C600093FEA6818146E68154F8440C4FF48058C7
:102C7000FF214C3C404508D1206918B10DE00120EE
:102C8000BDE8F88F40F2FF100DE07F2218B1B0F1DF
:102C9000805F05D009E0206950B9A4F85C1004E019
:102CA000206928B13F20A4F85C00B4F85C601DE006
:102CB000A4F85C20F9E700BFB4F85A00401EA4F85D
:102CC0005A004B46002220212046CDF800A000F0FB
:102CD00007FF08B10320D3E7A068404501D1206970
:102CE00078B12068808C304005F8010BB4F85A00A8
:102CF0000028E1D1202084F86A0084F86870002060
:102D0000BEE72068808C304025F8020BEEE70220F9
:102D1000B6E770472DE9F843044690F869001F466E
:102D200016460D4620284DD1CDB1C6B194F86800A5
:102D3000012847D0012084F868004FF00008C4F84B
:102D40006C80212084F869005034FEF71DFE24F8C1
:102D5000026B814624F852694FF4805618E0012036
:102D6000BDE8F883B4F85200401EA4F852004B4668
:102D7000002280212046009700F0B2FEA0B9A06892
:102D8000B04201D1206988B115F8010B216808858E
:102D9000B4F852000028E5D14B46002240212046DD
:102DA000009700F09DFE30B10320D9E735F8020B03
:102DB000C0F30800EAE7202084F8690084F86880FE
:102DC0000020CDE70220CBE77047FEE730B589B0A1
:102DD000002406940794182168460894FDF70DFA1C
:102DE00014484FF0A0410125C0E90014846004613B
:102DF000C4614FF4806144620163C46005624FF4B2
:102E000010714463C1620421C0E905148463FEF7B4
:102E1000B5F906A907480694FDF70AFD0095039445
:102E2000CDE901540494694602480594FDF78AFDF2
:102E300009B030BD4800002030B587B01821684681
:102E4000FDF7DBF9134812490024C0E9001484603F
:102E50000461C4614FF48061446201630125C46070
:102E600005624FF4E0714463C1620421C0E90514B6
:102E70008463FEF783F900950394CDE9015404942B
:102E8000694604480594FDF75DFD07B030BD0000BC
:102E9000000100509C00002030B587B01421684626
:102EA000FDF7ABF92348416941F480014161416973
:102EB00001F480010591416941F4003141614169AA
:102EC00001F400310591416941F4002141614169FA
:102ED00001F400210591416941F48011416140698B
:102EE0004FF0904500F480100590002240212846C4
:102EF000FEF745FD4020009001200024CDE90104AB
:102F0000694628460394FEF74FFC4FF48060CDE9F4
:102F10000004694628460294FEF746FC042000900F
:102F20000548CDE9010469460448FEF73DFC07B0B9
:102F300030BD00000010024000001110000C0048DD
:102F400010B592B01C210BA8FDF757F92C2168464B
:102F5000FDF753F918481749002401604F21C0E9D3
:102F60000114C0E9031444618461FFF747FB124870
:102F7000FFF7FEFC6020CDE90B040D940E940F9436
:102F8000109400220BA90C481194FFF75DFC0094EB
:102F90004FF40050CDE90440019402940394069448
:102FA000694605480A94FFF7ABFA0348FFF714FC9B
:102FB00012B010BD004401407001002010B592B065
:102FC0001C210BA8FDF719F92C216846FDF715F90E
:102FD00018481749002401604F21C0E90114C0E9D5
:102FE000031444618461FFF709FB1248FFF7C0FC3A
:102FF0006020CDE90B040D940E940F9410940022E0
:103000000BA90C481194FFF71FFC00944FF40050DB
:10301000CDE904400194029403940694694605485E
:103020000A94FFF76DFA0348FFF7D6FB12B010BD04
:1030300000480140B001002010B588B000241348BA
:103040000594069403940494009401940E49029408
:1030500001604F21C0E90114C0E903144461846197
:10306000FFF7CCFA4FF48050039003A90748FFF70D
:1030700035FB2020CDE90004694604480294FFF79F
:103080008DFA08B010BD0000002C0140F0000020B7
:1030900010B588B000241348059406940394049452
:1030A000009401940E49029401604F21C0E901147B
:1030B000C0E9031444618461FFF7A0FA4FF4805023
:1030C000039003A90748FFF709FB2020CDE900047E
:1030D000694604480294FFF761FA08B010BD000089
:1030E00000340140300100200948084901604FF4D4
:1030F00016414160002181600C22C160C0E90412C8
:103100008161C16101624162FFF720BD0038014069
:10311000F0010020FEE770470907090E002806DAD3
:1031200000F00F0000F1E02080F8141D704700F15E
:10313000E02080F80014704770477047FEF72ABC03
:1031400010B5A6B0282116A8FDF757F8142120A81D
:10315000FDF753F858216846FDF74FF8022001218A
:103160001991169010211C901A9180030024CDE92A
:103170001D0416A81F94FEF7E3FE0F20CDE92004DE
:1031800022942394002120A82494FEF7DBFD074815
:1031900000904FF480700D940A900294129413944E
:1031A00010946846FEF784FC26B010BD8130800183
:1031B0001448016841F4700101601348016841F04E
:1031C000010101604168114A114041600168104AE3
:1031D00011400160016821F480210160416821F4FF
:1031E000FE014160C16A21F00F01C162016B094A11
:1031F00011400163002181600249C00380390860E9
:103200007047000088ED00E0001002400CC07FF81D
:10321000FFFFF6FECCFC00FF2DE9F0470268274BCC
:10322000274E284F284C294D4FF0804A984209D00C
:10323000504507D0B04205D0B84203D0A04201D0DB
:10324000A84204D122F0700C4A6842EA0C02DFF86E
:1032500080C0DFF88080DFF8809098420FD0504522
:103260000DD0B0420BD0B84209D0A04207D0604583
:1032700005D0404503D0484501D0A84203D122F4EF
:103280004076CA6832434E6922F0800232430260BF
:103290008A68C2620A688262984209D0A04207D056
:1032A000604505D0404503D0484501D0A84201D132
:1032B0000969016301214161BDE8F087002C0140EB
:1032C000000400400008004000340140005001406C
:1032D00000400140004401400048014010B5012376
:1032E000046A8B409C430462036A8A40134303626E
:1032F00010BD10B5846842EA032224F47F440A43D7
:103300002243826010BD826822F070020A4342F0BC
:1033100007018160704700002DE9F047026A22F042
:1033200001020262056A436882691F4C25F00205AA
:1033300022400C6822F0030214438A681C4E2A4380
:103340001A4D1C4FDFF870C0DFF87090DFF870A0E6
:10335000A84209D0B04207D0B84205D0604503D09A
:10336000484501D0504506D122F00808CA6842EA13
:10337000080222F00402A84209D0B04207D0B842A5
:1033800005D0604503D0484501D0504505D14D6971
:1033900023F440731D438B692B4343608461496868
:1033A00041630262BDE8F0878FFFFEFF002C014001
:1033B0000034014000400140004401400048014009
:1033C00000500140F0B5026A22F010020262056A64
:1033D000426883691C4C1E4E23400C6823F44073E2
:1033E00043EA042425F020038D681A4F43EA0513AD
:1033F000164DA84203D0B04201D0B84207D1D1F84F
:103400000CC023F0800343EA0C1323F04003A842CE
:103410000CD0B0420AD0104DA84207D00F4DA842A0
:1034200004D00F4DA84201D0B84207D14D6922F413
:10343000406242EA85028D6942EA85024260846107
:10344000496881630362F0BDFF8FFFFE002C0140DD
:103450000034014000500140004001400044014060
:1034600000480140F0B5026A22F480720262056AE7
:103470004268C3691C4C1E4E23400C6823F00303B2
:103480001C4325F400738D681A4F43EA0523174D3A
:10349000A84203D0B04201D0B84207D1D1F80CC045
:1034A00023F4006343EA0C2323F48063A8420CD086
:1034B000B0420AD0104DA84207D0104DA84204D007
:1034C0000F4DA84201D0B84207D14D6922F44052B5
:1034D00042EA05128D6942EA05124260C4614968F8
:1034E000C1630362F0BD00008FFFFEFF002C0140AE
:1034F00000340140005001400040014000440140C0
:103500000048014030B5026A22F480520262046A27
:103510004268C369144D24F400542B400D6823F411
:10352000407343EA05238D6844EA05340F4DA842F1
:103530000ED00F4DA8420BD00E4DA84208D00E4D14
:10354000A84205D00D4DA84202D00D4DA84204D18D
:103550004D6922F4804242EA85124260C3614968A3
:103560000164046230BD0000FF8FFFFE002C0140AB
:103570000034014000400140004401400048014047
:103580000050014030B5026A22F480320262046ABF
:103590004268436D124D2B400D681D4324F40033E7
:1035A0000C8943EA04430F4CA0420ED00E4CA042BB
:1035B0000BD00E4CA04208D00D4CA04205D00D4CB3
:1035C000A04202D00C4CA04204D14C6922F48032BB
:1035D00042EA04224260456549688165036230BD64
:1035E0008FFFFEFF002C01400034014000400140ED
:1035F00000440140004801400050014030B5026ADB
:1036000022F480120262046A4268436D134D24F46E
:1036100000142B400D6843EA05230D8944EA055444
:103620000F4DA8420ED00F4DA8420BD00E4DA84210
:1036300008D00E4DA84205D00D4DA84202D00D4D28
:10364000A84204D14D6922F4802242EA85224260D8
:1036500043654968C165046230BD0000FF8FFFFE0D
:10366000002C014000340140004001400044014072
:10367000004801400050014010B5036A046A24F07C
:1036800001040462846924F0F00444EA021423F083
:103690000A020A438461026210BD10B5036A23F076
:1036A000100303628369046A23F4704343EA02321D
:1036B00024F0A00343EA01118261016210BD90F879
:1036C0002410C90706D001684A68836A22F40032D0
:1036D0001A434A6090F82410890706D501684A68A1
:1036E000C36A22F480321A434A6090F824104907D2
:1036F00006D501684A68036B22F480221A434A60A7
:1037000090F82410090706D501684A68436B22F433
:1037100000421A434A6090F82410C90606D5016891
:103720008A68836B22F480521A438A6090F82410CE
:10373000890606D501688A68C36B22F400521A43D1
:103740008A6090F82410490611D501684A68036C14
:1037500022F480121A434A60016CB1F5801F06D131
:1037600001684A68436C22F4C0021A434A6090F828
:103770002410090606D501684A68806C22F40022EC
:1037800002434A607047F8B500260446C666FEF755
:10379000FBF80546206800686FF07E47000708D5F3
:1037A0002B4600224FF400112046009700F098F9B4
:1037B00060B92068006840070AD52B4600224FF404
:1037C00080012046009700F08BF908B10320F8BD76
:1037D000202084F8690084F86A0084F8686000207A
:1037E000F8BD10B5406A0021A0F85A10A0F8521098
:1037F000FFF70BF910BD01680A6822F490720A60A5
:1038000001688A6822F001028A60202180F86A102B
:10381000704710B501680A6822F040020A60202152
:1038200080F86910FFF7D0FA002010BD10B5B0F88D
:103830005C2090F86A300168222B05D0886940F03E
:1038400008008861022010BD898C8368B3F5805F11
:1038500001D103696BB11140426D531C4365117076
:10386000B0F85A10491E0904090CA0F85A1007D0E4
:1038700015E0436D11401980416D891C4165EFE7EA
:1038800001680A6822F490720A6001688A6822F06E
:1038900001028A60202180F86A10FFF73AFA0020BE
:1038A00010BD00002DE9F041044610202369A268F4
:1038B000E6691A436369002133431A4323680D46BE
:1038C0001E68654F3E4016431E6022685368E668D6
:1038D00023F4405333435360236AA2691A43236895
:1038E0009E6826F4306616439E605C4F22685C4BEF
:1038F0000603BA420CD11B6B13F0030306D0012B55
:103900004DD0022B4DD0032B4CD146E0012049E095
:10391000544FBA420CD11B6B13F440333BD0B3422B
:103920003DD0B3F5003F3CD0B3F5403F3AD134E051
:103930004D4FBA420DD11B6B13F440232BD0B3F57E
:10394000802F2CD0B3F5002F2BD0B3F5402F29D1E9
:1039500023E0464FBA420DD11B6B13F440131AD02B
:10396000B3F5801F1BD0B3F5001F1AD0B3F5401F6D
:1039700018D112E03E4FBA4214D11B6B13F440032E
:1039800009D0B3F5800F0AD0B3F5000F09D0B3F515
:10399000400F07D101E0002004E0022002E00420F3
:1039A00000E00820E7694FF400439F4227D109282F
:1039B0001ED2DFE800F00508131D161D1D1D19009D
:1039C000FEF762FA01E0FEF777FA4100D4F804004E
:1039D00001EB5001B1FBF0F081B20AE025496068CB
:1039E000F6E7FEF781FAF0E7606806EB5001F1E7D1
:1039F000012521F00F00C1F3420108431CE0092812
:103A000025D2DFE800F005080B24102424241C0034
:103A1000FEF73AFA09E0FEF74FFA06E01649606849
:103A200001EB50010EE0FEF75FFA0146606801EB22
:103A30005001B1FBF0F080B22168C86008E0606816
:103A400003EB5001B1FBF0F080B2D06000E0012543
:103A50002846BDE8F0810000F369FFEF003801401F
:103A6000001002400044004000480040004C00406C
:103A7000005000400024F40000127A0090F8691011
:103A8000212901D002207047B0F8521021B181687D
:103A9000B1F5805F0BD00CE001680A6822F080026B
:103AA0000A600068016841F0400101600CE00169B2
:103AB00061B1C16C4A1CC26402680978A2F828107E
:103AC00030F8521F491E018000207047C16C026807
:103AD0000988C1F308011185C16C891CC164EFE735
:103AE0002DE9F041984617460E460446069D1DE016
:103AF000681C1BD02DB1FDF747FFA0EB0800A842C2
:103B000014D92068016821F4D071016020688168AF
:103B100021F001018160202084F8690084F86A00A6
:103B2000002084F868000320BDE8F0812068C069A7
:103B300036EA000004D00020B842D9D00020F3E7D4
:103B40000120F9E70148FEF761BF0000F001002005
:103B5000FEE700000FB4054B10B503A9044A029814
:103B600000F02CF810BC5DF814FB0000513F000879
:103B7000440000200FB4084B10B504A902AA039812
:103B800000F01CF8044602A9002000F0B8F9204615
:103B900010BC5DF814FB0000FF3E000802E008C8FE
:103BA000121F08C1002AFAD170477047002001E0B7
:103BB00001C1121F002AFBD1704700002DE9FF4F01
:103BC0008BB088460546002606E025280BD0DDE9A7
:103BD0000D1290476D1C761C28780028F5D10FB087
:103BE0003046BDE8F08F0024A146A2460122AE492E
:103BF00000E0044315F8013F203B02FA03F00842BD
:103C0000F7D128782A2810D06FF02F022878A0F159
:103C10003001092915D809EB890102EB410144F073
:103C2000020400EB01096D1CF0E758F8041B5FEA81
:103C3000010903D544F40054C9F1000944F0020419
:103C40006D1C28782E2817D115F8010F44F00404B4
:103C50002A280ED06FF02F022878A0F13001092910
:103C60000AD80AEB8A0102EB410100EB010A6D1C44
:103C7000F2E758F804AB6D1C28786C280FD006DCEE
:103C80004C2817D068280DD06A2814D104E0742875
:103C900010D07A280FD10DE044F400140AE044F467
:103CA000801401E044F440146978814202D104F5A3
:103CB00080146D1C6D1C2878692865D006DC0028EE
:103CC0008DD0632827D0642806D15DE06E2808D007
:103CD00073282AD0752877D0DDE90D129047761C1D
:103CE000E0E0C4F30250022809D003280DD0D8F830
:103CF000001004280DD00E6008F10408D2E0D8F8B6
:103D00000010F217C1E90062F6E7D8F800100E8043
:103D1000F2E70E70F0E718F8041B8DF80010002091
:103D20008DF80100EB46012003E058F804BB4FF08A
:103D3000FF3061074FF0000701D40AE07F1C5745B0
:103D40000DDA8742FADB1BF807100029F6D106E0EE
:103D50007F1C8742FCDB1BF807100029F8D1DDE946
:103D60000D23A9EB07008146214600F0B1F830444D
:103D7000C61904E0DDE90D121BF8010B90477F1E08
:103D8000F8D22146484688E058F8040BC4F30251A3
:103D90004FF00A0B032900D100B2042900D140B230
:103DA000002802DA40422D2102E0210505D52B2111
:103DB0008DF82410012104E006E0E10710D0202155
:103DC000F6E708AF089113E058F8040BC4F302516A
:103DD0004FF00A0B032900D180B2042900D1C0B2F0
:103DE0000021EEE75946FCF7CFFB303107F8011D03
:103DF0000028F7D1ADEB070000F1200B600702D5DA
:103E000024F4803401E04FF0010ADA4502DDAAEB28
:103E10000B0000E00020824600EB0B0108980144F3
:103E2000A9EB01000A90E00306D4DDE90D23214649
:103E30000A9800F04DF806444FF0000908E009A97F
:103E400011F80900DDE90D12904709F10109761C0E
:103E500008998945F3DBE0030CD5DDE90D23214604
:103E60000A9800F035F8064404E0DDE90D12302030
:103E70009047761CBAF10001AAF1010AF5DC05E0D1
:103E8000DDE90D1217F8010B9047761CBBF100011C
:103E9000ABF1010BF4DC0A982146DDE90D2300F0BB
:103EA00005F806446D1C97E6092801002DE9F0414C
:103EB000044600251E461746880404D405E039460A
:103EC0002020B0476D1C641EF9D52846BDE8F0815E
:103ED0002DE9F041044600251E469046C80301D551
:103EE000302700E02027880404D505E04146384605
:103EF000B0476D1C641EF9D52846BDE8F0810A68FC
:103F0000531C0B601070704710B50C4C9FED0C0BE0
:103F100053EC102B94ED060B51EC100BFCF7E8FA68
:103F20000BD09FED090B53EC102B94ED060B51ECCD
:103F3000100BFCF70EFAC4E9060110BD00000020CA
:103F400000000000000000009A9999999999B93FE2
:103F500038B504468DF8000069460320ABBE204604
:103F600038BD000010B50C4C9FED0C0B53EC102B22
:103F700094ED060B51EC100BFCF7BAFA0BD09FED49
:103F8000090B53EC102B94ED060B51EC100BFCF7C6
:103F90003FF9C4E9060110BD000000200000000048
:103FA0000000F03F9A9999999999B93F2DED0A8BA4
:103FB000FDF7F8FCFFF7C4F8FEF76EFFFFF73CF8DB
:103FC000FEF704FFFEF738FFFFF762F8FEF7F6FF93
:103FD000FFF78AF8FEF7B4FF00216948FEF7E4FC1A
:103FE000674800214038FEF7DFFC65488038FEF75F
:103FF00068FB6448FDF7E0FA62485430FEF754FB72
:1040000060485438FDF7D8FA5D48403000680168D0
:1040100041F0400101609FED5CAB9FED5D8BDFF8EF
:1040200060819FED5DBBDFF878919FED5ECB5F4CCB
:10403000DFF87CB1A8F1400A4FF480674FF090455B
:1040400008F1B0064F48FCF771FE4E485438FCF7B3
:1040500043FE6069C0F13200FCF7F3F953EC1A2B10
:10406000FCF77DF953EC182BFCF776F941EC100BBB
:1040700053EC182B84ED060BFCF752FA03D29FED9C
:104080004D0B84ED060B2069C0F16400FCF7D9F9F3
:1040900053EC1B2BFCF763F941EC190B84ED089BE7
:1040A000D8F80C00401CE060FCF7DCF994ED061B2E
:1040B00053EC112BFCF753F9FCF700FAC9F8000098
:1040C00053EC1C2B51EC190BFCF712FA03D29FEDA9
:1040D0003B0B84ED080BDAF80C00401CE060FCF7A9
:1040E000C1F994ED081B53EC112BFCF738F9FCF7E0
:1040F000E5F9CBF8000022484030FEF70AFE3946C9
:104100002846FDF737FC00B31D482EA1BA30FFF753
:1041100031FD82B21A484FF4FA732FA14030FEF7F6
:10412000F9FD012240212846FDF729FC4FF4FA70E1
:10413000FDF728FB002240212846FDF720FC3946E8
:104140002846FDF717FC0028F9D10D496423B0314A
:104150000A22A1F17000FEF769FD00287FF472AF1A
:10416000317822A0FFF7F6FC3078752804D0642857
:10417000F4D1FFF7C9FE65E7FFF7F4FE62E7000040
:10418000B00100209C000020B1E1E995B20CA13FF4
:10419000000000000000F03F7B14AE47E17A843F4E
:1041A0003448014000000000000000000000002032
:1041B00034440140CDCCCCCCCCCCEC3F9A999999ED
:1041C0009999B93F506572736F6E2D64657465631C
:1041D0007465640D00000000506572736F6E2D44AD
:1041E00065746563746564210A0D00002563000031
:1041F00002030405060708090A0B0C0D0E0F101028
:104200000102030405060708090A0B0C0D0E0F1026
:104210000000000000000000010203040607080976
:1042200000000000010203044842000800000020D2
:10423000480000009C3B0008904200084800002015
:1042400058060000AC3B0008000000000000000021
:10425000000000000000000000000000000000005E
:10426000000000000000E03F000000000000E03F10
:10427000000000000000000000000000010000003D
:10428000100000000000000000127A000000000092
:040000050800019559
:00000001FF
